:020000040800F2
:1000000038060020DD010008C50A0008F1080008D4
:10001000C10A000871020008F3180008000000007F
:100020000000000000000000000000004501000882
:10003000B9060008000000008901000869110008E5
:10004000F7010008F7010008F7010008F7010008B0
:10005000F7010008F7010008F7010008F7010008A0
:10006000F7010008F7010008F7010008F701000890
:10007000F7010008F7010008F7010008F701000880
:10008000F7010008F7010008F7010008F701000870
:10009000F7010008F7010008F7010008F701000860
:1000A000F7010008F7010008F7010008F701000850
:1000B000FD110008F7010008F7010008F70100082A
:1000C000F7010008F7010008F7010008F701000830
:1000D000F701000859160008F7010008F7010008A9
:1000E000F7010008F7010008F7010008F701000810
:1000F000F7010008F7010008F7010008F701000800
:10010000F7010008F701000839120008F70100089C
:10011000F7010008F7010008F7010008F7010008DF
:10012000F7010008F7010008F7010008F7010008CF
:10013000DFF80CD000F064F8004800472F190008E1
:1001400038060020224B19680868B0E8F00F80F3E9
:100150000988BFF36F8F4FF0000080F311884EF0D5
:100160000D0E70470000000006480068006880F32C
:10017000088862B661B6BFF34F8FBFF36F8F00DFA1
:1001800000BF00BF08ED00E0EFF30980BFF36F8F01
:100190000F4B1A6820E9F00F106008B54FF0BF0050
:1001A00080F31188BFF34F8FBFF36F8F01F0E2FB35
:1001B0004FF0000080F31188BDE808401968086816
:1001C000B0E8F00F80F30988BFF36F8F704700BF6E
:1001D00018000020EFF305807047000006488047B4
:1001E00006480047FEE7FEE7FEE7FEE7FEE7FEE71C
:1001F000FEE7FEE7FEE7FEE79D110008310100087B
:10020000064C074D06E0E06840F0010394E8070063
:1002100098471034AC42F6D3FFF78EFF7C1B0008E2
:100220009C1B000810B51048007860B900F046FA31
:100230000E48B0F900000A2815DC00F05BFB012035
:10024000094908700FE00848007801280BD100F038
:1002500051FB0648B0F90000642804DB00F02EFAD8
:1002600000200149087010BD140000201200002079
:1002700000BFFEE700200149087070470B00002016
:1002800000200149087070470A00002008B50121CC
:10029000082000F0B5FC4FF46070ADF800000320BA
:1002A0008DF8020010208DF803006946014800F027
:1002B00079FA08BD000C014008B50121042000F0C6
:1002C0009FFC0121102000F09BFC0220ADF80000F3
:1002D00048208DF8030069460B4800F063FA0420BB
:1002E000ADF8000048208DF803006946064800F08C
:1002F00059FA0120ADF8000048208DF80300694646
:10030000024800F04FFA08BD00100140000801400B
:1003100008B50121102000F073FC1020ADF800009A
:1003200003208DF8020010208DF8030069460D4867
:1003300000F038FA002210210A4800F0C7FA202005
:10034000ADF8000003208DF8020010208DF80300A6
:100350006946044800F026FA00222021014800F0F6
:10036000B5FA08BD0010014010B54FF4A06000F0D0
:10037000EFFB10BD10B500F053FC4FF4803000F0DF
:1003800011FD00F06DFD0446012C24D1102000F079
:10039000EFF9022000F0FAF9002000F0F7FC00204D
:1003A00000F032FDA00200F023FD4FF4E011200424
:1003B00000F03CFD012000F033FD00BF392000F0CB
:1003C000BFFC0028FAD0022000F03EFD00BF00F084
:1003D000D5FC0828FBD110BD7FB505460C46012190
:1003E000084600F0FDFBADF80850ADF804400020D1
:1003F000ADF80A00ADF8060001A94FF0804001F009
:10040000D9F801221146900700F066FF1C208DF8F4
:10041000000000208DF8010003208DF8020001206B
:100420008DF80300684600F05BFB0121880700F0AF
:1004300036FF7FBD7FB505460C460121082000F040
:10044000CFFBADF80850ADF804400020ADF80A002D
:10045000ADF8060001A90E4801F0ACF801221146E2
:100460000B4800F039FF32208DF8000000208DF895
:10047000010003208DF8020001208DF8030068467A
:1004800000F02EFB0121024800F009FF7FBD0000B3
:10049000000C004030B589B005460C460121022011
:1004A00000F09EFB0121042000F09AFB01210420B2
:1004B00000F0A6FB0121082000F0A2FBC020ADF84F
:1004C000200018208DF8230003208DF8220008A9B1
:1004D000334800F067F94320ADF8200018208DF86C
:1004E000230003208DF8220008A92E4800F05AF9B5
:1004F000ADF81850ADF814400020ADF81A00ADF872
:10050000160005A9284801F055F805A9274801F06B
:1005100051F87020ADF804000120ADF8060002206B
:10052000ADF80C000020ADF80A0001A91E4800F04B
:10053000DDFE01A91C4800F02FFF01A91A4800F0B8
:100540008BFF01A9184800F0E1FF01A9174800F04E
:10055000CDFE0821144800F015FF0821124800F0D4
:100560006DFF0821104800F0C7FF08210E4801F078
:100570000BF808210D4800F005FF01210A4800F0A2
:100580007FFE0121084800F08AFE0121074800F0A3
:1005900077FE0121054800F082FE09B030BD000061
:1005A00000080140000C0140000400400008004029
:1005B00010B586B004460121880300F021FB01211B
:1005C000042000F01DFB4FF40070ADF8140018205B
:1005D0008DF8170003208DF8160005A9224800F0B9
:1005E000E1F84FF48060ADF8140004208DF8170096
:1005F00005A91D4800F0D6F801A801F06EF9019494
:100600000020ADF80800ADF80A00ADF80C000C2091
:10061000ADF80E000020ADF8100001A9134801F05C
:10062000E7F825208DF8000001208DF801008DF8F5
:1006300002008DF80300684600F052FA012240F2F1
:1006400025510A4801F0AFF8012240F2277107480E
:1006500001F0A9F80121054801F062F800200449E1
:10066000087006B010BD00000008014000380140CD
:100670001000002030B50346002016E0B3F900500A
:100680009C68645D0C541C88641C24B21C80B3F903
:100690000040B3F90450AC4201DB00241C80441C30
:1006A00020B2DC88641E24B2DC80B3F90640002C42
:1006B00001DD9042E2DB30BD7047000010B5174805
:1006C000B0F90000002803DC00201449088005E090
:1006D00012480088401E00B2104908800F48008868
:1006E00081B20F4800F05DFF0C48008881B20C48D1
:1006F00000F059FF0948008881B2094800F055FF11
:100700000648008881B2064800F051FF034800887F
:1007100081B2044800F045FF10BD00001200002027
:10072000000400400008004070B50346002016E0B9
:100730000C5CB3F902609D68AC555C88641C24B203
:100740005C80B3F90240B3F90450AC4201DB0024F1
:100750005C80441C20B2DC88641C24B2DC80B3F9C9
:100760000640B3F90450AC4201DA9042E0DB70BDC0
:100770000549096821F01001034A11601146096812
:100780000143116070470000002002400146002034
:10079000034A106800F038000843106070470000FA
:1007A000002002402DE9F0410246002500260020ED
:1007B00000230024002791F803C00CF00F0591F8E6
:1007C00003C00CF0100CBCF1000F03D091F802C074
:1007D0004CEA050591F800C0BCF1000F31D0146857
:1007E00000202BE04FF0010C0CFA00F3B1F800C030
:1007F0000CEA03069E4220D183004FF00F0C0CFA46
:1008000003F7BC4305FA03FC4CEA040491F803C067
:10081000BCF1280F06D14FF0010C0CFA00FCC2F815
:1008200014C00AE091F803C0BCF1480F05D14FF0A5
:10083000010C0CFA00FCC2F810C0401C0828D1D3EF
:100840001460B1F800C0BCF1FF0F34DD5468002023
:100850002EE000F1080C4FF0010808FA0CF3B1F893
:1008600000C00CEA03069E4221D183004FF00F0C1A
:100870000CFA03F7BC4305FA03FC4CEA040491F8B4
:1008800003C0BCF1280F05D100F1080C08FA0CF8E0
:10089000C2F8148091F803C0BCF1480F07D100F1F1
:1008A000080C4FF0010808FA0CF8C2F81080401C40
:1008B0000828CED35460BDE8F0810246002093683A
:1008C0000B400BB1012000E0002070470AB101612C
:1008D00000E0416170470000014800787047000067
:1008E0000A00002001480078704700000400002042
:1008F00000BFFEE710B51748B0F90000642803DB1D
:1009000064201449088005E012480088401C00B2A9
:10091000104908800F48008881B20F4800F041FE5E
:100920000C48008881B20D4800F03BFE0948008861
:1009300081B2094800F037FE0648008881B20648B7
:1009400000F033FE0348008881B2034800F02FFE18
:1009500010BD00001200002000040040000800400C
:10096000704710B500F01AFC00F071F800F039F88B
:100970004FF4165000F07CF800F06EF800F02CF800
:1009800000F010F800F050F800F030F800F028F80F
:10099000FFF7E6FF00F001F810BD10B5FFF776FC99
:1009A00010BD000010B5FFF787FC00200849087053
:1009B00048708870002408E0012004EB8401054A97
:1009C00002EB41014870601CC4B2032CF4DB10BD83
:1009D000010000206C00002010B5FFF799FC10BD4D
:1009E000704710B5FFF7C0FC10BD000010B54721DF
:1009F0006320FFF74FFD0021094800F0D2FD0021E0
:100A0000074800F0D0FD0021054800F0CEFD002190
:100A1000034800F0CCFD0021024800F0C2FD10BDEB
:100A20000004004000080040704730B50B46002429
:100A3000048044808280C4808360002104E000241C
:100A400085686C544C1C21B29142F8DB30BD10B566
:100A5000FFF790FC10BD704710B5472140F2E7301A
:100A6000FFF7BAFC472140F2E730FFF7E3FC10BD87
:100A700010B5044600F004F82046FFF799FD10BDBC
:100A800010B5002406E00020094908550949085519
:100A9000601C04B2642CF6DB642205490648FFF7AB
:100AA000C4FF642203490548FFF7BFFF10BD0000E3
:100AB000A4000020080100208C00002098000020E5
:100AC00000BFFEE77047000000F01F0201219140C7
:100AD000024A430942F823107047000080E200E018
:100AE00070B5002100230F22C47804B3154C24688C
:100AF00004F4E064C4F5E064210AC1F10403CA40CF
:100B0000447804FA03F184781440214309010E4C1F
:100B10000678A155047804F01F050124AC4005783F
:100B20006D11AD0005F1E025C5F8004109E004783C
:100B300004F01F050124AC40044D0678761145F8F9
:100B4000264070BD0CED00E000E400E080E100E034
:100B500002490143024A1160704700000000FA0593
:100B60000CED00E000B1704705490978491CC9B295
:100B7000034A1170032901D10021117000BFF2E76F
:100B80000400002010B5FFF775FB10BD10B5FFF78E
:100B9000A3FEB8B1FFF774FB0B48007804280CDB08
:100BA0000A49012000F086F9FFF79CFE044600F098
:100BB000FFF900200449087004E003480078401C55
:100BC0000149087010BD000000000020650B0008FE
:100BD0000146C88808B9012070470020FCE70000E2
:100BE00029B1064AD2690243044BDA6104E0034AA0
:100BF000D2698243014BDA61704700000010024065
:100C000029B1064A92690243044B9A6104E0034AFF
:100C100092698243014B9A617047000000100240C4
:100C20000F48006840F001000D4908600846406820
:100C30000C4908400A494860084600680A490840CB
:100C4000074908600846006820F4802008600846CC
:100C5000406820F4FE0048604FF41F008860704731
:100C6000001002400000FFF8FFFFF6FE30B5002143
:100C70000022002400232D4D6D6805F00C0121B1E8
:100C8000042905D0082923D105E0294D056022E07B
:100C9000274D05601FE0254D6D6805F47012234D4A
:100CA0006D6805F48034022505EB92421CB9214D94
:100CB000554305600BE01D4D6D6805F400351DB111
:100CC0001C4D5543056002E0194D5543056002E097
:100CD000174D056000BF00BF144D6D6805F0F001B1
:100CE0000909154D6B5C0568DD4045600F4D6D6869
:100CF00005F4E061090A104D6B5C4568DD408560D4
:100D00000A4D6D6805F46051C90A0B4D6B5C45686E
:100D1000DD40C560054D6D6805F44041890B074D08
:100D20006B5CC568B5FBF3F5056130BD0010024092
:100D300000127A0000093D005800002068000020E1
:100D400010B501460022002300204A11012A02D1D9
:100D5000094C236806E0022A02D1074C236A01E00D
:100D6000054C636A01F01F02012494401C400CB141
:100D7000012000E0002010BD001002400248406841
:100D800000F00C00704700000010024001460020F7
:100D9000034A506820F0F00008435060704700009C
:100DA000001002401149096821F480310F4A116096
:100DB0001146096821F480211160B0F5803F03D00D
:100DC000B0F5802F0ED106E00849096841F4803162
:100DD000064A116007E00549096841F4A021034A69
:100DE000116000E000BF00BF70470000001002402B
:100DF00001460020034A506820F4E0600843506038
:100E0000704700000010024001460020034A50686D
:100E100020F4605040EAC10050607047001002406A
:100E20000149086670470000000042420246002067
:100E3000044B586820F47C1042EA01031843014B2C
:100E4000586070470010024001460020034A506875
:100E500020F003000843506070470000001002407B
:100E600038B5002000900024002500BF3120FFF796
:100E700067FF05460098401C00900098B0F5A06FF1
:100E800001D0002DF2D03120FFF75AFF08B1012424
:100E900000E00024204638BD70B50446002501223C
:100EA00021460348FFF7E6FBC5B2284670BD0000A7
:100EB0008C00002070B505460E4605EB85003849CC
:100EC00001EB400420784006000E207025B1012D72
:100ED0000AD0022D18D10FE002213248FFF7EDFCB5
:100EE00021780843207010E004212E48FFF7E5FC2C
:100EF00021780843207008E001212B48FFF7DDFC32
:100F000021780843207000E000BF00BF2078274907
:100F1000495D884207D16078012804D100206070C3
:100F2000608020712EE020782049495DC943C9B214
:100F3000884217D16078A8B901206070207920B16B
:100F4000002020712072E0801CE0207A28B100206F
:100F50002072E0800220B04714E0012020720020BF
:100F6000E0800FE0607868B9207958B96088401C4B
:100F700060806088C82805DB012020710020207275
:100F80000120B047207A48B1E088401CE080E0882A
:100F9000282803DB00202072E080B04770BD0000ED
:100FA0006C000020001001400008014001000020FA
:100FB00010B5044624B1012C06D0022C27D123E021
:100FC000642000F02BF823E012480088401C1149EF
:100FD00008801148007850B900F0BCF80D4800882E
:100FE000B0F5C87F0FD101200B4908700BE000F06D
:100FF000B6F808480088B0F5FA7F04D1002005490A
:1010000008800549087003E0FFF70CF900E000BF15
:1010100000BF10BD080000200600002010B50446E7
:101020000F480480008881B20E4800F0BAFA0C48DC
:10103000008881B20B4800F0B6FA0948008881B2F6
:10104000084800F0B2FA0648008881B2054800F06E
:10105000AEFA0348008881B2034800F0A2FA10BD3E
:1010600012000020000400400008004010B500F00D
:1010700001F810BD0CB500200190009033480068C5
:1010800040F480303149086000BF3048006800F407
:10109000003000900198401C0190009818B9019808
:1010A000B0F5A06FF1D12948006800F4003010B10C
:1010B0000120009001E0002000900098012843D119
:1010C0002348006840F01000214908600846006885
:1010D00020F0030008600846006840F00200086045
:1010E0001A48406819494860084640684860084600
:1010F000406840F4806048600846406820F47C10F6
:1011000048600846406840F4E810486008460068B7
:1011100040F08070086000BF0C48006800F000706C
:101120000028F9D00948406820F0030007494860CA
:101130000846406840F00200486000BF034840682D
:1011400000F00C000828F9D10CBD0000001002408E
:101150000020024010B55020FFF760FF10BD10B511
:101160000020FFF75BFF10BD10B500BFBF2080F36C
:101170001188BFF34F8FBFF36F8F00BF00F02EFCBD
:1011800018B14FF080500449086000BF002080F380
:10119000118800BF10BD000004ED00E010B5134839
:1011A000006840F001001149086008464068104995
:1011B00008400E494860084600680E4908400B493F
:1011C00008600846006820F48020086008464068EF
:1011D00020F4FE0048604FF41F008860FFF746FFD0
:1011E0004FF000600449086010BD0000001002408C
:1011F0000000FFF8FFFFF6FE08ED00E010B501214A
:10120000880700F058F8012803D10121800700F079
:1012100043F807480088401C0549088008460088B4
:10122000022804DB0020088001200249087010BD5C
:101230000C0000200A00002010B501210D4800F02C
:101240003AF8012803D101210A4800F025F80A489C
:101250000088401C00B2084908800846B0F9000028
:10126000B0F57A7F04DB0020088001200349087074
:1012700010BD0000000C00400E0000200B000020FC
:1012800021B1028842F08002028004E002884FF619
:101290007F731A4002807047CA430282704721B1AF
:1012A000028842F00102028004E002884FF6FE73D9
:1012B0001A400280704730B5024600200023002407
:1012C000158A05EA0103958905EA010413B10CB1F9
:1012D000012000E0002030BD1AB183890B438381D7
:1012E00002E083898B4383817047000070B500243E
:1012F00000220023058C4FF6FE7635400584028CD3
:101300008388048B4FF68F752C40B51E2C400D88BA
:101310002C43751E2A400D892A434D882A43144DBB
:10132000A8420BD0134DA84208D0134DA84205D0B7
:10133000124DA84202D0124DA84213D14FF6F775B4
:101340002A404D892A434FF6FB752A408D882A434F
:101350004FF6FF652B404FF6FF552B408D892B43F1
:10136000CD892B4383800483CD888586028470BD1C
:10137000002C014000340140004001400044014085
:10138000004801400A460021018B4FF6F7731940CF
:10139000114301837047000070B500240022002330
:1013A000058C4FF6EF7635400584028C8388048BDC
:1013B00048F6FF752C404FF6FF452C400D884FF640
:1013C000FF7606EA05252C434FF6DF752A400D8986
:1013D00006EA05152A434D8806EA05152A43154DE8
:1013E000A84202D0144DA8421DD14FF67F752A4065
:1013F0004D894FF6FF7606EA05152A434FF6BF756D
:101400002A408D8806EA05152A434FF6FF352B4002
:101410004FF2FF752B408D8906EA85052B43CD8958
:1014200006EA85052B4383800483CD8805870284E3
:1014300070BD0000002C0140003401400A4600212C
:10144000018B4FF2FF7319404FF6FF7303EA02233B
:10145000194301837047000070B500240022002367
:10146000058C4FF6FF6635400584028C8388848B9B
:101470004FF68F752C404FF6FC752C400D882C4391
:101480004FF6FF552A400D894FF6FF7606EA0525EF
:101490002A434D8806EA05252A43154DA84202D065
:1014A000144DA8421DD14FF2FF752A404D894FF6C9
:1014B000FF7606EA05252A434FF6FF352A408D8838
:1014C00006EA05252A434EF6FF752B404DF6FF75BB
:1014D0002B408D8906EA05152B43CD8906EA0515B3
:1014E0002B4383808483CD888587028470BD000070
:1014F000002C0140003401400A460021818B4FF648
:10150000F7731940114381837047000070B50022C2
:1015100000230024058C4EF6FF7635400584038CAD
:101520008488828B48F6FF752A404FF6FF452A4093
:101530000D884FF6FF7606EA05252A434DF6FF751E
:101540002B400D8906EA05352B434D8806EA053503
:101550002B430B4DA84202D00A4DA84208D14BF6AE
:10156000FF752C408D894FF6FF7606EA85152C43D2
:1015700084808283CD88A0F84050038470BD000031
:10158000002C0140003401400A460021818B4FF2BB
:10159000FF7319404FF6FF7303EA02231943818357
:1015A0007047818670470187704781877047A0F830
:1015B00040107047002202881D4B98420ED01D4BF0
:1015C00098420BD0B0F1804F08D01B4B984205D009
:1015D0001A4B984202D01A4B984204D14FF68F739F
:1015E0001A404B881A43174B984207D0164B984223
:1015F00004D04FF6FF431A40CB881A4302808B88F1
:1016000083850B8803850A4B98420BD0094B98427F
:1016100008D00E4B984205D00D4B984202D00D4B8E
:10162000984201D10B7A0386012383827047000020
:10163000002C01400034014000040040000800403C
:10164000000C004000100040001400400040014029
:10165000004401400048014008B50020009040F2DD
:101660002551204800F075F858B12520FFF72CFAD5
:101670001C4800F029F9C0B200909DF8000000F06D
:101680003BF90821174800F057F8012806D1082136
:10169000144800F02DF8134800F016F940F22771B5
:1016A000104800F056F8E0B140F227710D4800F004
:1016B00028F82520FFF708FA6846FFF7EDFB9DF8AC
:1016C0000010084800F005F90748FFF781FA40B11B
:1016D000002006490870002240F22771014800F0FE
:1016E00062F808BD003801408C0000201000002086
:1016F00001F40072B2F5007F00D100BFCA4302803E
:10170000704710B50022002340F66A14A14200D1B0
:1017100000BF0A1201249440A3B2DC43048010BD30
:1017200021B1828942F40052828104E082894DF61F
:10173000FF731A408281704702460020B1F5007F96
:1017400000D100BF13880B400BB1012000E0002046
:10175000704770B50246002400230025002040F6A3
:101760006A16B14200D100BFC1F3421501F01F0358
:10177000012606FA03F3012D02D19689334006E0D3
:10178000022D02D1168A334001E0968A33400C12B2
:10179000012606FA04F41688344013B10CB1012076
:1017A00000E0002070BDF0B50346002400260025AF
:1017B000002040F66A17B94200D100BF1846C1F3B5
:1017C000421401F01F06012707FA06F5012C01D18A
:1017D0000C3004E0022C01D1103000E014301AB1BA
:1017E00007682F43076002E00768AF430760F0BD5A
:1017F0002DE9F04786B005460E460024A24600BFFC
:10180000A1460027B08900B100BF2F462C8A4CF6B4
:10181000FF700440F08804432C82AC894EF6F3102C
:101820000440B08831890843718908430443AC817E
:10183000AC8A4FF6FF400440B0890443AC8201A853
:10184000FFF714FA1F48874202D1DDF810A001E02B
:10185000DDF80CA0A88900F4004040B10AEBCA00F2
:1018600000EB0A1031684900B0FBF1F807E00AEB21
:10187000CA0000EB0A1031688900B0FBF1F864205F
:10188000B8FBF0F004012009642101FB1089A8894C
:1018900000F4004040B1322000EBC900B0FBF1F091
:1018A00000F00700044308E0322000EB0910642137
:1018B000B0FBF1F000F00F0004432C8106B0BDE84E
:1018C000F08700000038014001468888C0F3080016
:1018D0007047C1F30802828070474FF416510160CF
:1018E00000218180C18001810C2141810021818101
:1018F000704700BFFEE7000031B5002401226946B1
:101900000248FEF711FFC4B2204638BD98000020FF
:1019100002E008C8121F08C1002AFAD170477047B8
:10192000002001E001C1121F002AFBD17047FFF720
:1019300092F8FFF716F803E0FFF728F9FFF722F90E
:10194000FAE7000009480068006808B9012000E0D3
:10195000002020B14FF0FF300549086005E0034842
:101960000068C06800680249086070471C000020D9
:10197000480000201448006818B10120134908608D
:1019800021E000201149086000BF11480068B0FA4A
:1019900080F0C0F11F0100BF01EB81020D4B03EB92
:1019A000820042685268426000F108024368934234
:1019B00001D1C26842604268D268074B1A6000BF1A
:1019C00000BF184600687047540000203C0000200B
:1019D000300000206C010020180000202DE9F041AB
:1019E00000275B48006800287DD15A480068451CE4
:1019F0005848056095B900BF5748D0F8008057484F
:101A00000068554908605548C0F80080544800688F
:101A1000401C53490860FFF795FF00BF514800681C
:101A200085427DD300BF4C480068006808B901209A
:101A300000E0002020B14FF0FF304A4908606EE01E
:101A400045480068C068C4686668B54202D2454827
:101A5000066064E000BF6069D4E902128A60D4E9DC
:101A600002214A60211D42688A4201D1E168416039
:101A7000002262610168491E016000BFA06AA0B136
:101A800000BFA06AD4E907128A60D4E907214A603E
:101A900004F1180142688A4201D1216A41600022A2
:101AA000A2620168491E016000BF00BF94F82C10BB
:101AB000012088402C49096808432B49086000BF71
:101AC000E16A01EB8101294A02EB81014868A060CB
:101AD0008268E260211D826851608160E16A01EBE9
:101AE0008101224A00E02BE002EB81026261E16A9F
:101AF00001EB81011D4A52F82110491CE26A02EBF8
:101B000082021A4B43F8221000BF00BF1849E06A56
:101B10000968C96A884286D9012784E700E000BFC6
:101B200013480068C06A00EB8000104951F820009B
:101B3000012800D901270F48006800B1012704E0FF
:101B40000D480068401C0C4908603846BDE8F0812B
:101B5000540000202C0000201C0000202000002049
:101B60004000002048000020300000206C010020D0
:101B7000180000203C000020380000209C1B0008BA
:101B8000000000206C00000010190008081C00086C
:101B90006C000020CC0500002019000800000000A7
:101BA0000000000000000000000000000000000035
:101BB0000000000000000000000000000000000025
:101BC0000000000000000000000000000000000015
:101BD0000000000000000000000000000000000005
:101BE00000000000000000000000000004000000F1
:101BF00000000000000000000102030401020304D1
:081C00000607080902040608AA
:0400000508000131BD
:00000001FF
